:100000000C942A010C946E010C946E010C946E01F8
:100010000C946E010C946E010C946E010C946E01A4
:100020000C946E010C946E010C94BC160C948E17FB
:100030000C94B1110C946E010C946E010C946E0131
:100040000C946E010C946E010C946E010C946E0174
:100050000C946E010C9418120C946E010C946E01A9
:100060000C946E010C946E010C946E010C946E0154
:100070000C946E010C946E010C946E010C946E0144
:100080000C946E010C946E010C946E010C946E0134
:100090000C946E010C946E010C946E010C946E0124
:1000A0000C946E010C946E010C946E01A108A108D1
:1000B000D008D0082D0A2D0A2D0A2D0A10092D0A64
:1000C000B709B709200A2D0A2D0A280AC409C4094C
:1000D000C409C409C409C409C409C409C409C409B8
:1000E000C409C409C409C409C409C409D409E40978
:1000F000EB09F209FC09F317151800191518001976
:1001000057187A180019CF18E21829005400550022
:10011000560024002500260057002100220023005D
:1001200000001E001F002000580027002700370095
:1001300000002803540068006500200050006C0097
:1001400061006E0063006B0020004B0065007900C9
:1001500062006F0061007200640000002C034F0019
:100160007200740068006F006C0069006E0065002A
:100170006100720020004B006500790062006F0092
:1001800061007200640073000000040309040902A6
:100190003B00020100A0FA09040000010301010074
:1001A0000921110100012240000705810308000A0E
:1001B00009040100010300000009211101000122CE
:1001C0003900070582031000011201100100000030
:1001D00008EDFE606004000102000105010906A1AE
:1001E00001050719E029E71500250195087501812A
:1001F00002050819012905950575019102950175FA
:1002000003910105071900297715002501957875D7
:10021000018102C005010906A101050719E029E7CE
:100220001500250195087501810295017508810168
:1002300005081901290595057501910295017503B8
:1002400091010507190029FF150026FF0095067585
:10025000088100C011241FBECFEFDAE0DEBFCDBFA2
:1002600004B603FE24C08091BA019091BB01A09115
:10027000BC01B091BD018730904BA740B04BB9F4A1
:100280001092BA011092BB011092BC011092BD01F4
:1002900014BE84B7877F84BF88E10FB6F89480933B
:1002A0006000109260000FBEE0E0F8E3099511E0F5
:1002B000A0E0B1E0E8EEF2E302C005900D92A831B3
:1002C000B107D9F711E0A8E1B1E001C01D92AA3B46
:1002D000B107E1F70E940B140C9472190C94000002
:1002E0000C945D05613019F0623049F013C0FC01D7
:1002F0008281882311F081E007C081E009C0FC0100
:100300008281882321F082E00E94060F03C082E0F0
:100310000E94270F80E090E0089581E0089581E039
:1003200008950C948F010E948F0A2FEF84E39CE0C4
:10033000215080409040E1F700C000000C943D1235
:100340000F931F93CF93DF938C01FC01C081D18168
:10035000CE010E94BC0FBE010E945F04EC01B801F7
:100360000E949101882309F40BC1B801CE010E94BB
:10037000F004882309F404C1C431F0E7DF0708F072
:10038000CDC0C23080E7D80708F4A3C0F80182814D
:10039000882309F4AAC00E944F11811102C00E9453
:1003A00035110E94621190E09093AC018093AB01F3
:1003B000C230F0E7DF0721F48091AB01816082C099
:1003C000C33080E7D80721F48091AB0182607AC006
:1003D000C430E0E7DE0721F48091AB01846072C095
:1003E000C530F0E7DF0719F48091AB0127C0C630B4
:1003F00080E7D80721F48091AB01806163C0C730EA
:10040000E0E7DE0721F48091AB0180625BC0C83079
:10041000F0E7DF0721F48091AB01806453C0C9305D
:1004200080E7D80721F48091AB0180684BC0CA30C7
:10043000E0E7DE0729F48091AB018460886042C068
:10044000CB30F0E7DF0721F48091AB018E7F3AC01B
:10045000CC3080E7D80721F48091AB018D7F32C08A
:10046000CD30E0E7DE0721F48091AB018B7F2AC01D
:10047000CE30F0E7DF0719F48091AB0122C0CF3016
:1004800080E7D80721F48091AB018F7E1BC0C0317B
:10049000E0E7DE0721F48091AB018F7D13C0C1310D
:1004A000F0E7DF0721F48091AB018F7B0BC0C231F5
:1004B000D04721F48091AB018F7704C08091AB01CC
:1004C0008B7F877F8093AB018091AB010E94661187
:1004D00057C0C115E0E7DE0779F0C130D047A1F081
:1004E00081E08093180180931901C801DF91CF91B9
:1004F0001F910F910C948D01F8018281882309F4DA
:100500003FC00E9493013CC0F80182818823C1F161
:100510008091930181608093930132C0CB3380E757
:10052000D807A1F4F8018281882321F010921801E4
:1005300082E016C080911801811106C086E20E94F7
:100540003F0786E20E94070882E018C0CC33D047FC
:1005500039F6F8018281882331F01092190180E286
:100560000E9456080DC080911901811106C087E2D2
:100570000E943F0787E20E94070880E20E945D0810
:1005800080E0DF91CF911F910F9108950C9470013D
:100590000C945F0508950C94CA020C94CB02E72FCB
:1005A000F0E025E0829FE00DF11D1124EE0FFF1F0A
:1005B000EE0FFF1FE60FF11DEE0FFF1FE65FFE4F70
:1005C000859194910E947304811540E49407B0F5DD
:1005D000811520E3920708F0E5C0803E9105D8F42C
:1005E000803C910508F06BC0883A910578F4853A13
:1005F000910508F06AC08130910509F45EC108F4E4
:1006000015C18430910508F058C110C18D3B91058A
:1006100008F466C00BC18F3F910509F048F4803F94
:10062000910508F0B4C0883E910508F446C1FEC0AB
:10063000811540E2940708F0ACC00895811523E5C8
:10064000920790F4811542E5940708F0CFC0811518
:1006500021E5920708F0C5C0811540E5940708F030
:10066000A4C09F70906A0895811525E59207D0F483
:10067000811544E5940708F0CEC0282F26952695CD
:1006800040E2249F90011124AC014370552781E082
:1006900090E002C0880F991F4A95E2F7822B932BB6
:1006A0009A680895811526E5920708F4B9C09C015F
:1006B00030562115304108F0B9C09F70B5C0FC011B
:1006C000EE0FFF1FE657F0406AC0853A910509F426
:1006D000B0C0863A910509F4AFC083E890E408956C
:1006E000883A910509F4ABC0893A910509F4AAC08A
:1006F0008A3A910509F4A9C08B3A910509F4A8C07A
:100700008C3A910509F4A7C08B3B910509F4A6C06A
:100710008C3B910509F4A5C08D3A910509F4A4C05C
:10072000803B910509F4A3C08E3A910509F4A2C05B
:100730008F3A910509F4A1C0813B910509F4A0C04D
:10074000823B910509F49FC0833B910509F49EC04B
:10075000843B910509F49DC0853B910509F49CC03B
:10076000863B910509F49BC0873B910509F49AC02B
:10077000883B910509F499C0893B910509F498C01B
:100780008A3B910509F097C08AE296E40895906546
:1007900008959F70880F991F865F9E4FFC01859179
:1007A000949108959927906C0895482F437021E003
:1007B00030E002C0220F331F4A95E2F73C68AC01DB
:1007C00064E0569547956A95E1F74370342B8F7036
:1007D0008695869540E2849FC0011124822B932B3D
:1007E0000895982F8827816F906A0895282F26955D
:1007F000269540E2249F90011124AC0143705527B7
:1008000081E090E002C0880F991F4A95E2F7822BA1
:10081000932B9C680895982F8827846F906A089579
:100820008F719927982F88279062089580E090E033
:10083000089581E890E4089582E890E4089582EEB6
:1008400094E4089589EE94E408958AEE94E408957A
:1008500085EB94E4089586EB94E4089583EB94E4A7
:10086000089584EB94E4089587EB94E408958CEC68
:1008700094E408958DEC94E4089583E895E4089554
:100880008AE895E4089582E995E4089584E995E479
:10089000089581E296E4089583E296E4089584E25F
:1008A00096E4089585E296E4089586E296E4089534
:1008B00087E296E4089580E094E408950895E72F90
:1008C000F0E095E0899FE00DF11D1124EE0FFF1F70
:1008D000EE0FFF1FE60FF11DEE0FFF1FE65FFE4F4D
:1008E0008591949108958238910549F1B0F481334E
:1008F000910509F459C048F48932910509F44FC0B3
:100900008A32910509F455C008958533910509F49B
:1009100041C08933910599F00895833E910531F1E5
:1009200038F4803E910591F0823E9105A9F008953A
:10093000863E910501F1873E910539F10895209198
:10094000AB0120FD3BC021FD39C008958091AB0172
:1009500080FF34C089E341C08091AB0182FF32C087
:100960008091AB0184FF2CC080E037C08091AB0147
:1009700082FD28C0F5CF8091AB0183FF25C0809117
:10098000AB0184FDF1CF87EE28C08091AB0183FDE0
:100990001BC0F5CF8091AB0185FF18C019C08091B5
:1009A000AB0185FF15C012C08091AB0186FF12C05C
:1009B00013C08091AB0186FF0FC00CC080EE0DC04C
:1009C00083EE0BC082EE09C086EE07C085E305C04A
:1009D00089E203C081E301C08AE290E008950895AE
:1009E000CF93DF93EC01FB018281811102C081E092
:1009F00040C080912701811125C0C431D047B9F78B
:100A00000E94EF0481E0809327010E94E3119093FC
:100A100026018093250110921A0110921C01109258
:100A20001B0110921E0110921D01109220011092C4
:100A30001F011092220110922101109224011092A4
:100A4000230116C080912501909126010E94EF118B
:100A5000883C910560F680911A01E82FF0E0EE0FD6
:100A6000FF1FE55EFE4FD183C0838F5F80931A0125
:100A700080E0DF91CF910895A3E1B1E021E030E083
:100A80008D91E82FF0E094E0F595E7959A95E1F7E0
:100A900041A18F70B90102C0660F771F8A95E2F7F6
:100AA000CB01962F9095492341A392A1982B92A315
:100AB00071E0A831B70721F70895089508950C94BF
:100AC0005E0585B7806885BF85B7806885BF0E9451
:100AD0003C05AFE0B1E021E030E08D91E82FF0E09F
:100AE00044E0F595E7954A95E1F741A18F70B9018A
:100AF00002C0660F771F8A95E2F7CB01962F90957B
:100B0000492341A392A1982B92A371E0A331B70787
:100B100021F7EDE2F1E0A8E2B1E011921D9281E04F
:100B2000E233F807D1F70C94C602DF92EF92FF92FE
:100B30000F931F93CF93DF9303E111E0C8E2D1E05D
:100B4000EE24E394F12CF5E0DF2EF80181918F0182
:100B5000E82FF0E074E0F595E7957A95E1F721A1AB
:100B60008F70A70102C0440F551F8A95E2F7CA0192
:100B7000242B21A392A18095982392A350EA5A9501
:100B8000F1F7AFE0B1E040E080E090E05D91E52F6B
:100B9000F0E064E0F595E7956A95E1F720A130E093
:100BA0005F7002C0359527955A95E2F720FD07C082
:100BB0002E2D082E01C0220F0A94EAF701C020E072
:100BC000422B01968430910509F78881841719F02A
:100BD0004883D09200010E943C05219681E00831B3
:100BE000180709F0B2CF809100018823B1F081503D
:100BF00080930001882339F0EFE9FFE03197F1F7A6
:100C000000C000000AC0ADE2B1E0E8E2F1E081918D
:100C10008D9341E0ED32F407D1F70E94C80281E0E4
:100C2000DF91CF911F910F91FF90EF90DF9008958A
:100C3000E82FF0E0E35DFE4F8081089508959093E2
:100C40003701809336010895E0913601F091370124
:100C5000309721F00190F081E02D099480E0089513
:100C6000E0913601F0913701309721F00280F38155
:100C7000E02D0994089520913401309135018217B7
:100C8000930771F09093350180933401E091360120
:100C9000F0913701309721F00680F781E02D09941B
:100CA000089520913201309133018217930771F03A
:100CB0009093330180933201E0913601F091370136
:100CC000309721F00084F185E02D0994089508956E
:100CD0000C9467060E94DA110E9461050C94601260
:100CE000CF92DF92EF92FF920F931F93CF93DF93F8
:100CF000CDB7DEB72B970FB6F894DEBF0FBECDBFD2
:100D00000E94950539E3E32E31E0F32E00E010E078
:100D1000C02E802F0E941806F701D1907F01D8269F
:100D2000B1F40F5F1F4F0530110591F78FEF8983E5
:100D30008A831B820E94E3118160782F9D838C83BC
:100D400049815A816B818D810E94110741C0909128
:100D5000930191FF04C08B870E941E068B8520E0C3
:100D600030E04D2D50E0922FBA01022E02C0759551
:100D700067950A94E2F760FF25C02E83CF82EE24A8
:100D8000E394F12C02C0EE0CFF1C9A95E2F790E080
:100D90008E219F2121E0892B09F420E028870E94E1
:100DA000E3118160782F9A8789874E815F816885FA
:100DB0008A850E941107F801E75CFE4F80818E252D
:100DC000808306C02F5F3F4F2430310561F6A9CFE5
:100DD000109138010E9424061817A1F00E942406E1
:100DE000809338012B960FB6F894DEBF0FBECDBFAF
:100DF000DF91CF911F910F91FF90EF90DF90CF90F7
:100E00000C94CD022B960FB6F894DEBF0FBECDBF6B
:100E1000DF91CF911F910F91FF90EF90DF90CF90D6
:100E20000895CF93DF93CDB7DEB72B970FB6F89425
:100E3000DEBF0FBECDBF4F83588769877A878B8708
:100E4000DE01119686E0FD0111928A95E9F785E0B1
:100E5000FE01379601900D928A95E1F749815A81FA
:100E60006B817C818D819E810E945F0D2B960FB6D8
:100E7000F894DEBF0FBECDBFDF91CF9108958823D8
:100E800009F4C4C0823859F40E94240681FDBEC012
:100E900089E30E943C100E94061189E30CC083384C
:100EA00071F40E94240680FDB1C083E50E943C10CD
:100EB0000E94061183E50E947C100C940611843870
:100EC00059F40E94240682FDA1C087E40E943C10D0
:100ED0000E94061187E4EFCF9CEF980F913A18F427
:100EE0000E943C10EACF90E2980F983050F487703F
:100EF00091E001C0990F8A95EAF7892F0E94BD10F1
:100F0000DCCF9BE5980F933070F4853A29F0863A50
:100F100031F482E890E005C081E890E002C083E807
:100F200090E00C943B0698E5980F953108F06EC060
:100F3000883A61F1893A69F18A3A71F18B3A79F12B
:100F40008C3A81F18B3B89F18C3B91F18D3A99F18F
:100F5000803BA1F18E3AA9F18F3AB1F1813BB9F111
:100F6000823BC1F1833BC9F1843BD1F1853BD9F18F
:100F7000863BE1F1873BE9F1883BF1F1893BF9F1EF
:100F80008A3B09F03FC08AE292E03EC082EE90E0E8
:100F90003BC089EE90E038C08AEE90E035C085EB2A
:100FA00090E032C086EB90E02FC083EB90E02CC045
:100FB00084EB90E029C087EB90E026C08CEC90E0B9
:100FC00023C08DEC90E020C083E891E01DC08AE84A
:100FD00091E01AC082E991E017C084E991E014C061
:100FE00081E292E011C083E292E00EC084E292E0DE
:100FF0000BC085E292E008C086E292E005C087E27D
:1010000092E002C080E090E00C945106089588239D
:1010100009F44BC0823859F40E94240681FF45C070
:1010200089E30E943C100E94061189E30CC08338BA
:1010300071F40E94240680FF38C083E50E943C10B2
:101040000E94061183E50E947C100C9406118438DE
:1010500059F40E94240682FF28C087E40E943C10B5
:101060000E94061187E4EFCF9CEF980F913A58F356
:1010700090E2980F983050F4877091E001C0990F7A
:101080008A95EAF7892F0E94C310DFCF9BE5980F5E
:10109000933020F480E090E00C943B06885A853130
:1010A00020F480E090E00C9451060895882321F00C
:1010B0000E94BD100C9406110895882321F00E940F
:1010C000C3100C94061108958F929F92AF92BF9215
:1010D000CF92DF92EF92FF920F931F93CF93DF9304
:1010E0001F92CDB7DEB74C01A62E472FFC01F5802D
:1010F000F2948FE0F822E280EE2021F079830E94C2
:10110000DA10498149830E9435104981882381F092
:10111000EE2071F080E28A0D883050F082E00E946B
:101120001E100E943510BB24B394B826498101C01B
:10113000B12CE42FE295EF70F0E0EA5AFF4F0C94E7
:101140003619842F807F142F1F70882311F0129579
:10115000107FEE2089F0112309F468C180E28A0D26
:10116000883020F4812F0E94BD1003C0812F0E947F
:10117000CD100E9406115AC18A2D0E940708112322
:1011800009F46BC180E28A0D883020F4812F0E941F
:10119000C31003C0812F0E94D3100E9406115DC1AD
:1011A000942F907F842F8F70903211F08295807FE2
:1011B000AA2021F0F1E0AF16B1F021C0EE2041F0FD
:1011C000FF2039F191E0F91224C00E94ED1045C1D1
:1011D000FF2021F0E1E0FE1609F43FC189830E945F
:1011E000F0108981DEC0EE2029F0F5E0FF1508F44B
:1011F00034C10FC094E09F1508F42FC1D2C0EE2077
:1012000059F0FF2031F0F401958190FF0FC19F70DC
:1012100095830E94560821C1FF2009F4C2C00CC169
:10122000842F837009F04EC0E11017C12A2D22953A
:1012300026952770220F220F8A2D8F70C82ED12C51
:10124000E12CF12C022E04C0CC0CDD1CEE1CFF1C8A
:101250000A94D2F7A4FE10C06FE070E080E090E046
:1012600004C0660F771F881F991F2A95D2F76095D3
:1012700070958095909503C060E070E0CB01242FBD
:1012800026952695237030E02230310569F0233011
:10129000310589F06C297D298E299F29213031055E
:1012A00071F00E94B30ED9C06C297D298E299F2927
:1012B0000E94CD0ED2C00E94B30EC701B6010E949B
:1012C000990ECBC0EE2019F0842F817001C0869555
:1012D000882309F4C2C02A2D229526952770220F53
:1012E000220F8A2D8F70C82ED12CE12CF12C022ECA
:1012F00004C0CC0CDD1CEE1CFF1C0A94D2F7A4FE2B
:1013000010C06FE070E080E090E004C0660F771FCF
:10131000881F991F2A95D2F76095709580959095B2
:1013200003C060E070E0CB01242F26952695237042
:1013300030E02230310569F02330310589F06C2925
:101340007D298E299F292130310571F00E94870F58
:1013500084C06C297D298E299F290E94A10F7DC000
:101360000E94870FC701B6010E946D0F76C00A2D3B
:1013700010E0F801E05EF109E531F10508F052C036
:10138000EA59FF4F0C9436191A2D1F70842F8F7154
:10139000EE2021F00E94060F812F3BCF0E94270FE5
:1013A000812F0E945D0859C0EE2049F0F4E0FF153E
:1013B00008F453C0842F8F710E944C0F4EC085E0FB
:1013C0008F1508F44AC0F6CFEE2039F0842F8F71C4
:1013D0000E94060F42C0EE20C9F3842F8F710E9435
:1013E000270F3BC0EE2029F0842F8F710E94F10E51
:1013F00034C00E94E70E31C0EE2051F0142F1F714F
:10140000812F0E94060F63E0812F0E94151025C0D6
:1014100081E00E941E1091E09F15F8F482E00E9486
:101420001E101BC0EE2031F0FF2081F28A2D0E9499
:101430003F0713C0FF2089F28A2D0E9407080DC0C4
:101440004F706A2DC4010E9472010E940C0E05C0EB
:101450004F706A2DC4010E945E04BB20F1F00E940F
:10146000111080FD1AC0F40112820E940B100E941C
:10147000060FC4010E945B0A0E940B100F90DF91BF
:10148000CF911F910F91FF90EF90DF90CF90BF9081
:10149000AF909F908F900C94270F0F90DF91CF917A
:1014A0001F910F91FF90EF90DF90CF90BF90AF9082
:1014B0009F908F9008950F931F93CF93DF93EC012C
:1014C000288139818B819C81892B31F03F3F11F03C
:1014D00080E003C02F3FE1F781E0811113C0CE010E
:1014E0000E94A001882371F0688179818A810E941D
:1014F00007108C010E94BB0F0E948E0EB801CE0116
:101500000E946408DF91CF911F910F9108950E946E
:10151000DA100E94EA100E94AF100C9406110E948B
:10152000CA100C94870A0E94FC0F292F22952F7055
:1015300030E02C3031054CF42A3031056CF4225067
:10154000310922303105B0F407C02C30310571F07B
:101550002F30310559F00EC0803F31F018F4803E35
:1015600048F402C0843F31F481E0089593FB88275A
:1015700080F9089580E00895CF93DF9300D000D0E4
:101580001F92CDB7DEB70F900F900F900F900F9076
:10159000DF91CF910895CF93DF9300D000D000D09A
:1015A000CDB7DEB726960FB6F894DEBF0FBECDBF1F
:1015B000DF91CF9108951F93CF93DF93C0913E01A8
:1015C00016E080913F01C81799F0D0E01C9FF00110
:1015D0001D9FF00D1124E05CFE4F4081518162811E
:1015E0007381848195810E94CB0A2196C770E9CFCF
:1015F000DF91CF911F910895409170015091710139
:1016000060917201709173018091740190917501E4
:101610000C94CB0ACF938091750182958F7009F05D
:101620005FC080917201882309F45AC020913E0165
:10163000A0913F01609170017091710180917301DF
:101640009091740131E06F3F09F030E0B32FC6E0B4
:101650002A1709F445C0009721F07F3F21F44B2F52
:1016600003C041E001C040E030E040FD35C0C29F12
:10167000F001C39FF00D1124E05CFE4F4181741313
:101680002BC04081641328C04281411125C0438191
:1016900054814817590710F441505109481B590B00
:1016A000483C5105C8F4809175018F70806180932A
:1016B000750186E0829FF001839FF00D1124EB5BA2
:1016C000FE4F80818F708061808380E791E00E946F
:1016D0005B0ACF910C94DB0A2F5F3F4F2770B8CF86
:1016E000CF910895CF92DF92EF92FF920F931F93C5
:1016F000CF93DF93CDB7DEB762970FB6F894DEBF16
:101700000FBECDBF8C0185E0F801DE011D96019072
:101710000D928A95E1F7D8014C9111965C91119741
:1017200012966C9112971396ED90FC90149770910D
:101730007001E091710120917301309174012115C4
:10174000310531F0EF3F31F481E07F3F19F403C000
:1017500081E001C080E0B82FB170CB2E80FD6CC15C
:10176000D0907201DD2009F4F5C0F0917501E21608
:10177000F30638F0C701821B930B883C910548F0B3
:101780009BC0209530952E0D3F1D283C310508F05B
:1017900093C08F2F807F09F052C0E51314C07413DB
:1017A00012C0D62E61110FC0FF70F061F093750169
:1017B0000E94FC0A80E791E00E945B0A809175011B
:1017C000F80185836CC1EF2831F05F3F31F481E08F
:1017D0004F3F19F403C081E001C080E080FD03C0E9
:1017E00081E0862701C080E0F82FF170FF2E80FF96
:1017F0001CC080913E0120913F0136E0821709F420
:1018000028C190E0389FF001399FF00D1124E05C71
:10181000FE4F7181571306C07081471303C0728158
:10182000671303C001968770E9CFD62E662309F4AB
:1018300036C18091750181608093750153C0E513B5
:1018400008C0741306C0611104C0D8011596FC933A
:10185000AEC04D875E878D859E856A8B0E94930AF8
:101860006A89882329F1D62E662311F1209175010A
:10187000822F82958F7090E002970CF460C0809167
:1018800070019091710198878F831986FB86EA8693
:101890002C87CE01079651C0E51731F14D875E8741
:1018A0008D859E856A8B0E94930A6A8981112EC05C
:1018B000C8010E945B0AA4C08F2F807F69F77E2D2C
:1018C000F98AE88A89890E94BC0A80E791E00E942F
:1018D0005B0AE0E7F1E086E0DF011D928A95E9F717
:1018E0000E94FC0AD12CDBC07413D8CF6111D6CF73
:1018F000D8011596FC93C8010E945B0AE0E7F1E06D
:1019000086E0DF011D928A95E9F7C9C0D62E6623CD
:1019100079F220917501822F82958F7090E0029765
:1019200074F080917001909171019A8389831B8278
:10193000FD82EC822E83CE0101960E945B0A86E036
:10194000F801A0E7B1E001900D928A95E1F70E94BD
:101950000A0B6FC0E216F30628F0C701821B930B37
:101960009C0104C0209530952E0D3F1D283C31056B
:1019700008F052C0D62E662309F49ACFE5132CC086
:1019800074132AC08091750180FD1DC0982F929517
:101990009F70C9F0D80115968C9315979F3039F038
:1019A0009F5F9295907F8F70892B15968C93C801BD
:1019B0000E945B0A86E0F801A0E7B1E001900D9279
:1019C0008A95E1F736C086E0F801A0E7B1E0019022
:1019D0000D928A95E1F763C04D875E878D859E8560
:1019E0000E94930A882379F086E0F801A0E7B1E02D
:1019F00001900D928A95E1F70E940A0B0E94FC0A61
:101A0000DD24D3944CC08091750181608093750171
:101A1000C8010E945B0A43C07E2DF98AE88A898941
:101A20000E94BC0AE0E7F1E086E0DF011D928A95A2
:101A3000E9F70E94FC0A33C0662309F439CF4D87C9
:101A40005E878D859E850E94930A882309F430CF96
:101A5000CBCF4D875E878D859E850E94FC0F292FF9
:101A600022952F7030E0223031052CF49F7041F028
:101A7000811106C00CC0243031052CF49F7049F44C
:101A8000805E883020F0C8010E945B0ACF2CDC2CDD
:101A900006C0D80115969C91907F91F7F8CF8D2DB7
:101AA00062960FB6F894DEBF0FBECDBFDF91CF9127
:101AB0001F910F91FF90EF90DF90CF9008951F93AB
:101AC000CF93DF93CDB7DEB72C970FB6F894DEBF78
:101AD0000FBECDBF4F83588769877A878B879C87D6
:101AE000CE0107960E94720B8823C1F02F813885A2
:101AF0008A859B85892B31F03F3F11F080E003C040
:101B00002F3FE1F781E0811147C04F8158856985FA
:101B10007A858B859C850E94CB0A3EC086E0FE01BB
:101B20003796DE01119601900D928A95E1F7FF81BB
:101B3000E8854A855B854115510531F0EF3F31F469
:101B400081E0FF3F19F403C081E001C080E080FD27
:101B500023C020913F0130E0C90101968770992789
:101B600060913E0170E086179707F1F1F983EA83EF
:101B70005D834C8396E0929FD001939FB00D11241A
:101B8000A05CBE4FFE01319601900D929A95E1F74F
:101B900080933F010E94DB0A16E080913E01909104
:101BA0003F01891779F1189FC0011124805C9E4F75
:101BB0000E94720B882331F1E0913E011E9FF001DB
:101BC0001124E05CFE4F40815181628173818481E8
:101BD00095810E94CB0A80913E0190E0019687702A
:101BE000992780933E01D9CF0E948F0A10923F011E
:101BF00010923E01E0E7F1E086E0DF011D928A9558
:101C0000E9F7CACF2C960FB6F894DEBF0FBECDBF52
:101C1000DF91CF911F910895EF92FF920F931F9341
:101C2000CF93DF939C01009709F471C0F12CEE244F
:101C3000E394E9012196F9018491843740F48430DA
:101C400008F056C0813081F0823021F160C08537C4
:101C500009F449C0C0F19CE7980F903708F057C0CD
:101C60008F770E94070846C089010E5F1F4FFE0153
:101C7000849190E2980F983050F48770FE2D01C047
:101C8000FF0F8A95EAF78F2F0E94DD1015C00E9482
:101C90003F0714C089010E5F1F4FFE01849190E23F
:101CA000980F983068F48770FE2D01C0FF0F8A9559
:101CB000EAF78F2F0E94E3100E940611E8011AC074
:101CC0000E940708FBCF2E5F3F4FFE01C491CC233B
:101CD00041F08FE99FE00197F1F700C00000C1508B
:101CE000F6CFE90107C0FE01F490E901229602C097
:101CF0000E943F078F2D882341F0EFE9FFE03197E5
:101D0000F1F700C000008150F6CF9E0192CFDF9125
:101D1000CF911F910F91FF90EF90089508956093D8
:101D20007A0170937B0180937C0190937D010C94E8
:101D3000870A0F931F9300917A0110917B012091E4
:101D40007C0130917D01062B172B282B392B00931A
:101D50007A0110937B0120937C0130937D011F91C8
:101D60000F910C94870A0F931F9300917A011091A1
:101D70007B0120917C0130917D01062317232823CC
:101D8000392300937A0110937B0120937C013093D7
:101D90007D011F910F910C94870A0F931F9300915F
:101DA0007A0110917B0120917C0130917D01062701
:101DB00017272827392700937A0110937B01209356
:101DC0007C0130937D011F910F910C94870A109232
:101DD00076011092770110927801109279010C949B
:101DE000870A41E050E060E070E004C0440F551FF6
:101DF000661F771F8A95D2F740937601509377013B
:101E000060937801709379010C94870A41E050E067
:101E100060E070E004C0440F551F661F771F8A956D
:101E2000D2F78091760190917701A0917801B091DD
:101E30007901842B952BA62BB72B80937601909359
:101E40007701A0937801B09379010C94870A41E05F
:101E500050E060E070E004C0440F551F661F771F1C
:101E60008A95D2F74095509560957095809176014E
:101E700090917701A0917801B09179018423952305
:101E8000A623B7238093760190937701A0937801DE
:101E9000B09379010C94870A41E050E060E070E073
:101EA00004C0440F551F661F771F8A95D2F7809193
:101EB000760190917701A0917801B0917901842702
:101EC0009527A627B7278093760190937701A09353
:101ED0007801B09379010C94870A0F931F930091B6
:101EE0007601109177012091780130917901062BCC
:101EF000172B282B392B0093760110937701209311
:101F00007801309379011F910F910C94870A0F93F8
:101F10001F93009176011091770120917801309103
:101F20007901062317232823392300937601109380
:101F3000770120937801309379011F910F910C94D0
:101F4000870A0F931F9300917601109177012091DA
:101F50007801309179010627172728273927009320
:101F600076011093770120937801309379011F91C6
:101F70000F910C94870A0895CF92DF92EF92FF920F
:101F80000F931F93CF93DF93EC01C0907A01D09011
:101F90007B01E0907C01F0907D0180917601909131
:101FA0007701A0917801B0917901C82AD92AEA2A4B
:101FB000FB2A0FE110E0B701A601002E04C07695C0
:101FC0006795579547950A94D2F740FD05C0015093
:101FD000110988F780E007C0BE01802F0E94CF0260
:101FE0000197A9F3802FDF91CF911F910F91FF905F
:101FF000EF90DF90CF900895CF93DF93EC010E9494
:10200000BC0FBE010E94CF02DF91CF910895CB019A
:102010000E94FC0F089580917E0185958595859598
:10202000089580917E018770089598E0899F9001BE
:102030001124622B60937E010C94060F40917E0167
:102040008095842380937E01982F977069F450E0E7
:10205000282F332727FD30954217530729F0859500
:10206000859585950C94270F089590917E01977022
:1020700081E009F480E0089590910E019923D9F050
:10208000909101019923B9F0982F96959695969580
:102090009F3088F5E0910201F0910301E90FF11DF5
:1020A000877021E030E001C0220F8A95EAF7818134
:1020B000822B81830895409102015091030120E019
:1020C00030E09FEFFA01E20FF31F6281681799F089
:1020D0009F3F19F4611101C0922F2F5F3F4F2E30A7
:1020E000310581F79F3F39F0FA01E90FF11D97FDA6
:1020F000FA9582830895089590910E019923E1F055
:10210000909101019923C1F0982F969596959695F7
:102110009F3020F5E0910201F0910301E90FF11DDC
:10212000877021E030E001C0220F8A95EAF7209500
:102130008181282321830895409102015091030158
:1021400020E030E0FA01E20FF31F9281981301C002
:1021500012822F5F3F4F2E303105A1F7089581E0A5
:1021600090E0E0910201F0910301E80FF91F108265
:10217000019680319105A9F7089590919201982BCD
:102180009093920108958095909192019823909355
:102190009201089510929201089590919101982BC7
:1021A0009093910108958095909191019823909337
:1021B0009101089510929101089590919001982BAA
:1021C0009093900108958095909190019823909319
:1021D0009001089510929001089580937F010895D1
:1021E00010927F010895409102015091030120E077
:1021F00030E080E0FA01E20FF31F918191118F5FCF
:102200002F5F3F4F2F303105A9F70895E09102016C
:10221000F0910301809192018083E0910201F0919D
:102220000301808190919101892B8083E0910201CB
:10223000F0910301808190919001892B808390918E
:102240007F01992361F0E0910201F0910301808107
:10225000892B80830E94F310811110927F0180915D
:102260000201909103010C9430066DEE7EEF80E048
:1022700090E00E945C1960E082E090E00E944A19C0
:1022800060E083E090E00E944A1960E084E090E022
:102290000E944A1960E085E090E00C944A1980E0C1
:1022A00090E00E94441921E08D3E9E4F09F020E00D
:1022B000822F089582E090E00C943C1983E090E036
:1022C0000C943C1984E090E00C943C19682F84E055
:1022D00090E00C944A198091B101843021F1109260
:1022E000940120E488E190E00FB6F894A8958093DB
:1022F00060000FBE2093600080E00E94CD0283B793
:10230000817F846083BF83B7816083BF7894889521
:1023100083B78E7F83BF88E10FB6F8948093600007
:10232000109260000FBE089508950895CF930E9403
:1023300094110E9495050E949511C0E08C2F0E9477
:102340001806811105C0CF5FC530C1F780E001C01C
:1023500081E0CF9108950E948F0A0E9424060C9478
:10236000CD021F920F920FB60F9211248F939F935D
:10237000AF93BF9380919401811113C08091950117
:1023800090919601A0919701B09198014196A11D5D
:10239000B11D8093950190939601A0939701B093FE
:1023A0009801BF91AF919F918F910F900FBE0F90A9
:1023B0001F90189582E084BD93E095BD9AEF97BD7C
:1023C00080936E0008952FB7F894809195019091B5
:1023D0009601A0919701B09198012FBF0895CF92D7
:1023E000DF92EF92FF920F931F932FB7F8944091D3
:1023F00095015091960160919701709198012FBFBE
:102400006A017B01EE24FF248C0120E030E0C0163D
:10241000D106E206F30610F441505109481B590B4E
:10242000CA011F910F91FF90EF90DF90CF90089518
:102430001F920F920FB60F9211248F939F93AF9319
:10244000BF938091950190919601A0919701B091D1
:1024500098010196A11DB11D80939501909396015D
:10246000A0939701B0939801BF91AF919F918F91E5
:102470000F900FBE0F901F9018950E944116F89470
:102480002FEF87EA91E6215080409040E1F700C0AD
:10249000000087E090EBDC018093BA019093BB01D0
:1024A000A093BC01B093BD012CE088E190E00FB691
:1024B000F894A895809360000FBE20936000FFCF32
:1024C0000E944F11811102C00E9435110E945A11C1
:1024D000809393010E94621190E09093AC018093ED
:1024E000AB0187FB882780F9809301010E945E1170
:1024F000682F70E080E090E00C948F0E8091A9012D
:1025000008950895CF93DF9300D01F92CDB7DEB723
:102510002091B101243021F523E029839B838A8314
:1025200081E08093E9008FEF9091E800815095FD64
:1025300006C095ED9A95F1F700008111F5CF8091D5
:10254000E80085FF0DC040E050E063E070E0CE01A0
:1025500001960E94AF148091E8008E778093E80086
:102560000F900F900F90DF91CF910895CF93DF934D
:1025700000D01F92CDB7DEB72091B101243021F5F4
:1025800022E029839B838A8381E08093E9008FEF97
:102590009091E800815095FD06C095ED9A95F1F770
:1025A00000008111F5CF8091E80085FF0DC040E06B
:1025B00050E063E070E0CE0101960E94AF1480917C
:1025C000E8008E778093E8000F900F900F90DF91D6
:1025D000CF910895CF93DF93EC018091B1018430C6
:1025E00009F047C080910E018823E1F0809101013C
:1025F0008823C1F082E08093E9008FEF9091E8009A
:10260000815095FD06C095E19A95F1F70000811182
:10261000F5CF8091E80085FF2CC040E050E060E1FC
:1026200070E017C081E08093E9008FEF9091E8009F
:10263000815095FD06C095ED9A95F1F70000811146
:10264000F5CF8091E80085FF14C040E050E068E0DD
:1026500070E0CE010E94AF148091E8008E778093E5
:10266000E80080E1FE01A9E9B1E001900D928A95B0
:10267000E1F7DF91CF9108958091B001811109C0F8
:102680000E9441160E949E168091E2008460809311
:10269000E20008951092B0010895089508950C94F1
:1026A000AB1142E061EC81E00E94BB1542E161ECBC
:1026B00082E00C94BB158091B301833009F453C0C0
:1026C00030F4813071F0823009F48CC008958A3082
:1026D00009F478C08B3009F45EC0893009F09AC0E3
:1026E00020C08091B201813A09F094C08091E80045
:1026F000877F8093E8008091B6019091B701892B84
:1027000021F060E080E090E003C060E189E991E0C1
:1027100070E00E94F8148091E8008B778093E800C5
:1027200008958091B201813209F074C08091B601A0
:102730009091B701029708F06DC08091E800877F03
:102740008093E8008091E80082FD05C08091B1018E
:102750008111F8CF5FC08091F1008093A901809131
:10276000E8008B7753C08091B201813A09F052C0E2
:102770008091B6019091B701892B09F04BC08091EF
:10278000E800877F8093E8008091E80080FFFCCF1D
:1027900080910E0136C08091B2018132D9F58091CD
:1027A000B6019091B701892BA9F58091E800877F48
:1027B0008093E8000E94F0158091B40180930E018F
:1027C0000C948F0A8091B201813221F58091E8004A
:1027D000877F8093E8000E94F0158091B501809377
:1027E000AA0108958091B201813AA1F48091E80094
:1027F000877F8093E8008091E80080FFFCCF809184
:10280000AA018093F1008091E8008E778093E80020
:102810000C94F015089584B7877F84BF88E10FB6C4
:10282000F89480936000109260000FBE80E880935F
:102830006100109261000E9468060E9441160E9489
:102840009E168091E20084608093E20078940E945A
:1028500019190E946A0684E091E00E941F06809187
:10286000B101853069F40E946B118091AF0188231A
:10287000B1F30E949611882391F30E949914EFCF2F
:102880000E947006ECCF292F33272330310599F0B1
:102890005CF421303105B1F122303105C1F58BE313
:1028A00090E02EE831E041C021323105C9F02232FA
:1028B0003105F9F02CC099278130910541F0823023
:1028C000910541F0892B19F5EAE8F1E005C0ECE546
:1028D000F1E002C0E2E3F1E0849190E09F0125C0C5
:1028E0006623D1F0613099F489E090E029EB31E082
:1028F0001CC06623B1F0613051F489E390E02BED08
:1029000031E013C082E190E029EC31E00EC080E0BC
:1029100090E020E030E009C089E090E020EA31E07A
:1029200004C080E490E024E132E0FA0131832083A6
:10293000089580E189BD82E189BD09B400FEFDCF23
:102940008091D8008F7D8093D8008091E0008260D4
:102950008093E0008091E00081FDFCCF0895CF924C
:10296000DF92EF92FF920F931F93CF93DF937C013F
:102970008B01EA010E941116811131C0209731F0BC
:1029800088819981081B190BE80EF91EC12CD12CE6
:102990000115110519F18091E80085FD14C08091A1
:1029A000E8008E778093E800209741F08881998134
:1029B0008C0D9D1D9983888385E011C00E9411169E
:1029C000882331F30CC0F70181917F018093F100DE
:1029D00001501109FFEFCF1ADF0ADACF80E0DF9153
:1029E000CF911F910F91FF90EF90DF90CF900895BE
:1029F0002091B8013091B9012617370748F06115C9
:102A0000710539F42091E8002E772093E80001C089
:102A1000B901FC0120E061157105B9F18091B101A6
:102A2000882309F440C0853009F43FC08091E80054
:102A300083FD3DC08091E80082FF06C08091E800E0
:102A400082FF26C080E008958091E80080FFE3CFF8
:102A50002091F3008091F20090E0922B61157105B6
:102A600051F08830910538F421912093F1006150A4
:102A700071090196F3CF21E0089709F020E08091D9
:102A8000E8008E778093E800C6CF2111C7CFD6CF5C
:102A90008091B101882339F0853039F08091E800C8
:102AA00083FFCCCF04C082E0089583E0089581E0E5
:102AB00008952091B8013091B9012617370748F0E1
:102AC0006115710539F42091E8002E772093E80014
:102AD00001C0B901FC0120E061157105C1F18091CF
:102AE000B101882309F441C0853009F440C08091C8
:102AF000E80083FD3EC08091E80082FF06C080911F
:102B0000E80082FF27C080E008958091E80080FF00
:102B1000E3CF2091F3008091F20090E0922B6115B9
:102B2000710559F08830910540F424912093F1000B
:102B30003196615071090196F2CF21E0089709F0B2
:102B400020E08091E8008E778093E800C5CF2111C6
:102B5000C6CFD5CF8091B101882339F0853039F0C7
:102B60008091E80083FFCBCF04C082E0089583E02A
:102B7000089581E00895982F973058F59093E900D3
:102B8000981739F07091EC002091ED005091F00011
:102B900003C0242F762F50E021FF19C03091EB00A5
:102BA0003E7F3093EB003091ED003D7F3093ED00A0
:102BB0003091EB0031603093EB007093EC00209388
:102BC000ED005093F0002091EE0027FF07C09F5FBB
:102BD000D3CF8F708093E90081E0089580E008955D
:102BE0008091B20187FD05C08091E80080FF0EC092
:102BF00012C08091E80082FD05C08091B101811171
:102C0000F8CF08958091E8008B7708C08091B101DA
:102C10008111EACF08958091E8008E778093E800D3
:102C200008958091E4009091E50045E62091EC0044
:102C300020FF21C02091E80020FD21C02091B1019A
:102C4000222389F0253089F02091EB0025FD0FC06B
:102C50002091E4003091E5002817390739F34150FD
:102C600041F0C901E3CF82E0089583E0089581E057
:102C7000089584E008952091E80022FFDFCF80E0EE
:102C800008950E94AF160E94B716E0EEF0E0808132
:102C900081608083E8EDF0E080818F77808319BCCC
:102CA000A7EDB0E08C918E7F8C9380818F7E8083A6
:102CB0001092B00108950F931F93CF93DF930E945A
:102CC000AF160E94B716C8EDD0E088818F77888351
:102CD00088818068888388818F7D888319BC109261
:102CE000B1011092AD011092AF011092AE0100EE51
:102CF00010E0F80180818B7F8083888181608883E8
:102D000042E060E080E00E94BB15E1EEF0E08081EF
:102D10008E7F8083E2EEF0E080818160808380811D
:102D200088608083F80180818E7F808388818061C4
:102D30008883DF91CF911F910F910895E8EDF0E026
:102D400080818F7E8083E7EDF0E0808181608083E9
:102D500084E082BF81E08093B0010C945B16E8EDC3
:102D6000F0E080818E7F80831092E20008951092BF
:102D7000DA001092E10008951F920F920FB60F92A1
:102D800011242F933F934F935F936F937F938F9370
:102D90009F93AF93BF93EF93FF938091E10082FFE6
:102DA0000BC08091E20082FF07C08091E1008B7F21
:102DB0008093E1000E9418198091DA0080FF1FC003
:102DC0008091D80080FF1BC08091DA008E7F8093B5
:102DD000DA008091D90080FF0DC080E189BD82E1D9
:102DE00089BD09B400FEFDCF81E08093B1010E944E
:102DF0003C1305C019BC1092B1010E944A13809186
:102E0000E10080FF19C08091E20080FF15C0809131
:102E1000E2008E7F8093E2008091E20080618093E7
:102E2000E2008091D80080628093D80019BC85E0D0
:102E30008093B1010E944E138091E10084FF30C065
:102E40008091E20084FF2CC080E189BD82E189BDD0
:102E500009B400FEFDCF8091D8008F7D8093D8000B
:102E60008091E1008F7E8093E1008091E2008F7E6F
:102E70008093E2008091E20081608093E200809183
:102E8000AD01882311F084E007C08091E30087FF43
:102E900002C083E001C081E08093B1010E944F1322
:102EA0008091E10083FF29C08091E20083FF25C06B
:102EB0008091E100877F8093E10082E08093B101FF
:102EC0001092AD018091E1008E7F8093E1008091AE
:102ED000E2008E7F8093E2008091E2008061809327
:102EE000E20042E060E080E00E94BB158091F000CB
:102EF00088608093F0000E944D13FF91EF91BF9185
:102F0000AF919F918F917F916F915F914F913F9181
:102F10002F910F900FBE0F901F9018951F920F9238
:102F20000FB60F9211242F933F934F935F936F939C
:102F30007F938F939F93AF93BF93CF93EF93FF9321
:102F4000C091E900CF708091EC001092E90080916F
:102F5000F000877F8093F00078940E94CA17109247
:102F6000E9008091F00088608093F000C093E90050
:102F7000FF91EF91CF91BF91AF919F918F917F91F1
:102F80006F915F914F913F912F910F900FBE0F90D6
:102F90001F9018951F93CF93DF93CDB7DEB7AA97F5
:102FA0000FB6F894DEBF0FBECDBFE2EBF1E080912B
:102FB000F100819321E0EA3BF207C9F70E945B131D
:102FC0008091E80083FF1CC12091B2013091B301D0
:102FD000832F90E08A30910508F012C1FC01E5587A
:102FE000FF4F0C943619203881F0223809F008C1BF
:102FF0008091B6018F708093E9008091EB0085FB92
:10300000882780F91092E90006C08091AE01909166
:10301000AF01911182609091E800977F9093E80052
:103020008093F1001092F100C5C0822F8D7F09F0CE
:10303000E7C0222319F0223061F0E2C08091B40190
:10304000813009F0DDC0333009F080E08093AF01BA
:1030500028C08091B401811124C02091B6012F7045
:1030600009F4CEC02093E9008091EB0080FF19C0E5
:103070008091EB00333011F4806211C08061809345
:10308000EB0081E090E0022E01C0880F0A94EAF77D
:103090008093EA001092EA008091EB0088608093B0
:1030A000EB001092E9008091E800877F86C0211133
:1030B000A7C01091B4011F778091E3008078812B25
:1030C0008093E3008091E800877F8093E8000E946E
:1030D000F0158091E80080FFFCCF8091E3008068CC
:1030E0008093E300112311F083E001C082E080931C
:1030F000B10186C02058223008F082C08091B4010E
:103100009091B5018C3D23E0920779F583E08A83A5
:103110008AE289834FB7F894DE01139620E03EE0FF
:1031200051E2E32FF0E050935700E49120FF03C0F9
:10313000E295EF703F5FEF708E2F90E0EA3010F075
:10314000C79601C0C0968D939D932F5F243149F798
:103150004FBF8091E800877F8093E8006AE270E0CB
:10316000CE0101960E94F81414C0AE014F5F5F4F6C
:103170006091B6010E944314009709F441C0209168
:10318000E800277F2093E800BC0189819A810E9492
:1031900059158091E8008B778093E80031C0203882
:1031A00079F58091E800877F8093E8008091AD01F8
:1031B0008093F1008091E8008E778093E8000E9470
:1031C000F0151EC021111CC09091B4019230C0F4C2
:1031D0008091E800877F8093E8009093AD010E9482
:1031E000F0158091AD01811104C08091E30087FF4B
:1031F00002C084E001C081E08093B1010E945113BC
:103200008091E80083FF0AC08091E800877F809367
:10321000E8008091EB0080628093EB00AA960FB6E5
:10322000F894DEBF0FBECDBFDF91CF911F910895FF
:103230000895CF938091B1018823B1F08091E90086
:103240008F709091EC0090FF02C090E801C090E078
:10325000C92FC82B1092E9008091E80083FD0E94DD
:10326000CA17CF70C093E900CF910895EE0FFF1FEA
:103270000590F491E02D0994F999FECF92BD81BD9E
:10328000F89A992780B50895A8E1B0E042E050E0AF
:103290000C946419262FF999FECF92BD81BDF89A3E
:1032A000019700B4021639F01FBA20BD0FB6F8948A
:1032B000FA9AF99A0FBE08950196272F0E944B198A
:1032C0000C944A19DC01CB01FC01F999FECF06C030
:1032D000F2BDE1BDF89A319600B40D9241505040D4
:0832E000B8F70895F894FFCF40
:1032E800050180017E12EA128112B61282120133A0
:0832F800323130F0F1F4F5F67B
:00000001FF
